:100000000C9489120C94B1120C94B1120C94B1128C
:100010000C94B1120C94B1120C94B1120C94B11254
:100020000C94B1120C94B1120C94B1120C94B11244
:100030000C94B1120C94B1120C9404190C94B112DA
:100040000C94B1120C94B1120C94B1120C94B11224
:100050000C94B1120C94B1120C94B1120C94B11214
:100060000C94B1120C94B11207634236B79BD8A717
:100070001A39685618AEBAAB558C1D3CB7CC5763CD
:10008000BD6DEDFD753EF6177231BF000000803F7B
:1000900008000000BE922449123EABAAAA2ABECD97
:1000A000CCCC4C3E00000080BEABAAAAAA3E000009
:1000B0000000BF000000803F000000000008417801
:1000C000D3BB4387D1133D190E3CC3BD4282AD2B38
:1000D0003E68EC8276BED98FE1A93E4C80EFFFBE30
:1000E00001C4FF7F3F0000000000C622CE22E822AC
:1000F000D822E822E822E822E822E822E822E822C0
:10010000E822E822E822E822E822E822E822E8229F
:10011000E822E822E822E822E822E822E822E8228F
:10012000E822E822E822C022E822E822E822E822A7
:10013000E822E822E822E822B422E822E822E822A3
:10014000E822E822E822E822E822E822E822DE2269
:10015000E3220A2403240324032403240324032482
:100160000324032403240324032403240324032457
:100170000324032403240324032403243D245424BC
:1001800003240324032403243D24032403240324FD
:1001900003240324032403240324542403240324D6
:1001A0000324032403240324032403240324032417
:1001B00031243724AC25CC25D025DD25E125A62505
:1001C000A9250000250028002B000000240027009E
:1001D0002A00FFE0FFD1AFFF32FFD0FFFEFFE0FFBC
:1001E000D1AEFFD0FFFEFFE0FFD11000FFFEFFD039
:1001F000FFE0FFC1FFD1AED580A83FD300408D14F2
:100200002000A1C8DA1281CFD9F1DB402EA4A6AF1D
:10021000FFD0FFFE001F1EFEFA11040508AA20FFF2
:10022000FB18FA11FB00000007000002111108037F
:1002300000C0C0C0C0C0C0C0C0C0C0C0C0C00000FE
:10024000C0C00707070A020ACECEC6C6C4C4C40F80
:100250001122110100011803180318033006303F62
:10026000FE062004600C600C40FFF818C0188011D6
:10027000803180318031000B152A0D01FE0400040D
:10028000003F007F80C4C0C4C0C400C400F4007F2D
:10029000003FC005E004E00460C460C460E4607F27
:1002A000C03F80040004001311331501003C02001C
:1002B0007E0400E30C00C30800C31800C31000C391
:1002C00030006660003E478000CFC0009860019813
:1002D00060011860021860061860040FC00C0780E7
:1002E0000F11221101000F003F8030C030C031C01B
:1002F0003B801F001C1876186718E398C1D8C0F01F
:10030000E07060787BFC1F8E02070708030AC0C0FC
:10031000C0C0C0C0400414140802FD3030606060EA
:10032000E0C0C0C0C0C0C0C0C0E060606030300489
:1003300014140802FDC0406060603030303030304E
:100340003030303060606040C00909120F0308226D
:1003500000360016001C00FF809C8014003600222E
:10036000000E0E1C1805000200020002000200022E
:10037000000200FFFC020002000200020002000274
:100380000002000406060601FD70706060C0C00631
:100390000101080105FC020303060200C0C0C007FA
:1003A00012120901FF0606040C0C08081818103078
:1003B000302020606040C00A11220D01001E003F65
:1003C00080618060C0C0C0C0C0C0C0C0C0C0C0C06C
:1003D000C0C0C0C0C0C0C061C061803F801E0005F9
:1003E00011110D03003878F8D818181818181818B3
:1003F0001818181818180A11220D01001E007F8005
:100400006180E0C0E0C000C001C00380038007003D
:100410000E001C00380070006000E000FFC00A11F0
:10042000220D01001F007F8060C0E0C000C000C03E
:1004300003800E00078001C000C000C0C0C0E0C043
:1004400061C07F801E000B11220D0100038003801C
:1004500007800D800D801980398031806180618036
:10046000C180FFE0FFE001800180018001800A116E
:10047000220D01007F8060006000600060006F005E
:100480007F80618040C000C000C000C000C0C0C00C
:10049000E1807F001E000B11220D01001F003B8038
:1004A00060C0E0C0C000C000CF00DFC0F1C0E0E02D
:1004B000C060C060C060C06060C03BC01F000A1167
:1004C000220D0100FFC000C000C001800180038038
:1004D000030003000700060006000E000C000C00DD
:1004E0001C00180038000B11220D01001F003B807A
:1004F00060C060C060C060C031801F003B8060C0D1
:10050000C060C060C060C06060E07BC01F000B11B5
:10051000220D01001F007FC060C0C0E0C060C0604D
:10052000C0E0E0E071E03F600060006000E060C0BB
:1005300061C07F801F00020C0C060200C0C0C0001A
:100540000000000000C0C0C0030F0F0601FD606086
:1005500060000000000000606060C0C0C00E0C18A9
:10056000180501000C003C01E007003800E000E045
:10057000003C00070001E0003C000C0E050A1805D5
:1005800004FFFC000000000000FFFC0E0C18180522
:1005900001C000F0001E0003800070001C001C0061
:1005A000F003801E00F000C0000911220B01003C86
:1005B00000FF00C380818001800180030007000EDE
:1005C000001C001800180018000000000018001897
:1005D000001416421701FB01FC0007FF001E0780F4
:1005E0003801C03000E061EC6063FC70E31C30C691
:1005F0000C30C60C30C60C30C60C30C60C30C60CE5
:1006000030E31C60631FE061E7C030000038000089
:100610001C000007DC0001FC001011221101000386
:1006200080038007C006C00EE00C600C7018301804
:100630003038383FF83FFC600C600CE006C006C064
:10064000070C1122100200FF80C3E0C070C030C050
:1006500030C030C070C0E0FF80C1E0C070C030C0AA
:1006600030C030C070C3E0FF800D11220F01000FB9
:10067000C03FF0303860186018C000C000C000C033
:1006800000C000C000C0006000601830303FF00FB4
:10069000C00D1122110200FF00C7C0C060C030C0F1
:1006A00030C018C018C018C018C018C018C018C072
:1006B00030C030C0E0C7C0FF000B11220E0200FFA7
:1006C000E0C000C000C000C000C000C000C000FF0B
:1006D000C0C000C000C000C000C000C000C000FF1B
:1006E000E00A11220D0200FFC0C000C000C000C01F
:1006F00000C000C000C000FF80C000C000C000C03B
:1007000000C000C000C000C0000E1122110100078F
:10071000E01FF8301C600C6000C000C000C000C0CA
:10072000FCC00CC00CE00C600C700C380C1FFC07FB
:10073000F80C1122100200C030C030C030C030C0F0
:1007400030C030C030C030FFF0C030C030C030C02A
:1007500030C030C030C030C030021111060200C0BD
:10076000C0C0C0C0C0C0C0C0C0C0C0C0C0C0C0C089
:100770000A11220D010000C000C000C000C000C06E
:1007800000C000C000C000C000C000C000C000C069
:10079000C0C0E1807F803E000C11220F0200C060CB
:1007A000C0C0C180C300C700CE00DC00F800DC0080
:1007B000DE00CE00C700C380C1C0C0E0C0E0C07092
:1007C0000A11220C0200C000C000C000C000C0001E
:1007D000C000C000C000C000C000C000C000C00019
:1007E000C000C000FFC0FFC0111133150200F007A8
:1007F00080F00780F00780D80D80D80D80DC1D8048
:10080000CC1980CC1980CE3980C63180C63180C3E6
:100810006180C36180C36180C1C180C1C180C1C129
:10082000800D1122110200E018F018F818F818DCF9
:1008300018DC18CE18C618C718C318C398C1D8C179
:10084000D8C0F8C0F8C078C0380F112211010007D5
:10085000C01EF03018600C600CC006C006C006C098
:1008600006C006C006E00E600C600C30181EF007D3
:10087000C00B11220E0200FF00C7C0C0E0C060C064
:1008800060C060C0E0C1C0FF80C000C000C000C048
:1008900000C000C000C000C00010112212010007FB
:1008A000C01EF03018600C600CC006C006C006C048
:1008B00006C006C006E00E600C600C30181EF8077B
:1008C000FF0B11220F0200FF00C7C0C0E0C060C0D4
:1008D00060C060C060C1C0FF00C1C0C0C0C0C0C0B7
:1008E000E0C060C060C060C0600C11220F01001F3A
:1008F000803FE06070C030C000E000F0007F803FCB
:10090000E003F000700030C030C03060707BE01F4A
:10091000800D11220F0100FFF80300030003000304
:1009200000030003000300030003000300030003AF
:100930000003000300030003000D1122110200C098
:1009400018C018C018C018C018C018C018C018C0E7
:1009500018C018C018C018C018603860303DE01FBB
:10096000C00E11220F0100C01CC018E038603060BA
:100970003070703060306038E018C018C01DC00D95
:10098000800D800F8007000700161133160000E06D
:10099000381C60781C607818707818306C3830CC4F
:1009A0003030CC3018CE3018C6701986601D866085
:1009B0000D83600D83C00F03C00703C00701C0068D
:1009C00001800E11221001007018703838301C6040
:1009D0001CE00EC007800780078007C00DC01CE028
:1009E000187030707038601CE01C0E11220F00006F
:1009F000E01C70187038383018701C600CC00EC0C5
:100A000007800380030003000300030003000300CA
:100A100003000C11220E01007FF00030007000E096
:100A200001C001C00380070007000E001C003C004D
:100A300038007000F000E000FFF00416160902FB19
:100A4000F0C0C0C0C0C0C0C0C0C0C0C0C0C0C0C076
:100A5000C0C0C0C0C0F00712120901FFC0C0406092
:100A60006020303010101818080C0C04040604160E
:100A7000160A03FBF0303030303030303030303058
:100A8000303030303030303030F00B0E1C17060074
:100A900004000E000A001B001100110031802080AC
:100AA000208060C04040C060802080200C01020C8B
:100AB00000FDFFF004040405000EC06060300A0C65
:100AC000180D01001F007B8060C060C000C03FC0E7
:100AD00078C0E0C0C0C0C1C077C03CC00B11220EBE
:100AE0000200C000C000C000C000C000CF00DFC0D6
:100AF000E0C0E0E0C060C060C060C060E0E0E0C0B6
:100B0000FB80CF000A0C180C01001F007F8061C021
:100B1000C0C0C000C000C000C000C0C061C07F80B5
:100B20001F000B11220E01000060006000600060D9
:100B300000601E607FE061E0E0E0C060C060C06017
:100B4000C060E0E060E03BE01E600A0C180D0100B0
:100B50001F007F8060C0C0C0C0C0FFC0C000C00018
:100B6000C0C060C03F801F000711110901001E3E78
:100B7000303030FE30303030303030303030300BCC
:100B800011220E01FB1F603FE060E0E0E0C060C0AA
:100B900060C060C060E0E060E07BE01E600060601C
:100BA000E060C03F801F000A11220E0200C000C09A
:100BB00000C000C000C000CF00FB80E1C0C0C0C0CA
:100BC000C0C0C0C0C0C0C0C0C0C0C0C0C0C0C002E3
:100BD0001111050100C0C0000000C0C0C0C0C0C0ED
:100BE000C0C0C0C0C0C00316160702FB6060000092
:100BF0000060606060606060606060606060606055
:100C0000E0C00911220C0200C000C000C000C000FA
:100C1000C000C380C700CE00DC00D800F800D800B8
:100C2000CC00CE00C700C300C38002111106020031
:100C3000C0C0C0C0C0C0C0C0C0C0C0C0C0C0C0C0B4
:100C4000C0120C24150200CF1F00FFBF80E1E1C0DD
:100C5000C0C0C0C0C0C0C0C0C0C0C0C0C0C0C0C094
:100C6000C0C0C0C0C0C0C0C0C0C0C00A0C180E0206
:100C700000DF00FF80E1C0C0C0C0C0C0C0C0C0C0B5
:100C8000C0C0C0C0C0C0C0C0C00B0C180D01001F48
:100C9000003FC060C0E0E0C060C060C060C060E015
:100CA000E060C03FC01F000B11220E02FBCF00FB13
:100CB000C0E0C0E0E0C060C060C060C060E0E0E0F4
:100CC000C0FBC0CF00C000C000C000C000C0000B0F
:100CD00011220E01FB1E607BE060E0E0E0C060C01E
:100CE00060C060C060E0E060E07BE01E600060002B
:100CF00060006000600060070C0C090200DEFCE090
:100D0000C0C0C0C0C0C0C0C0C0090C180B01003EAC
:100D1000007F80C180C000E0007E001F800380C192
:100D200080C18077003E00070F0F0901003030308E
:100D3000FE3030303030303030303A1E0A0C180E71
:100D40000200C0C0C0C0C0C0C0C0C0C0C0C0C0C021
:100D5000C0C0C0C0E1C07FC03CC00B0C180C01007B
:100D6000C060C0C0E0C061C06180318033003B0022
:100D70001B001E001E000C00120C24130000E0E0FB
:100D8000C060E0C061A1C071B18031B180333180F9
:100D9000331B001B1B001E1B001E0E000E0E000C42
:100DA0000E000B0C180D0100E0C071C031803B003B
:100DB0001F000E001E001F003380718061C0C0E064
:100DC0000B11220C01FBC060C0C0E0C061C071808B
:100DD000318033803B001B001E000E000E000C0013
:100DE0000C001C0018001800080C0C0A0100FF037E
:100DF000070E0C18383060E0C0FF0817170B02FB15
:100E00000F0E181818181818183870E0F030181845
:100E100018181818180C0F0119190804FA80808086
:100E200080808080808080808080808080808080C2
:100E30008080808080800817170B02FBE0703818D4
:100E400018181818181C0E070E1C1818181818183F
:100E50001830F00C02040C00053E70E7E0FFFFFFC5
:100E6000FFFFFFFFFFFFFFFFFFFFFFFFFFFFFFFF92
:100E7000FFFFFFFFFFFFFFFFFFFFFFFFFFFF000080
:100E8000000700000211110803FBC0C0000000C0F1
:100E9000C0C0C0C0C0C0C0C0C0C0C00A12240E02C2
:100EA000FD0100010001001F007F8062C0C6C0C4B8
:100EB00000C400CC00C800C8C079C07F801F0020DB
:100EC00000200020000B11220D01000F801DC030FA
:100ED00060300030003000FE003000300030003064
:100EE0000030003000300030003000FFE00B0E1CFE
:100EF0000D0103002080205F407B806080404040E7
:100F00004040404040608071805F40802000200C65
:100F100011220E0100C0306060606030E030C0F926
:100F2000F019800F800F00FFF00600060006000693
:100F3000000600060006000116160804FB808080EB
:100F400080808080808000000000808080808080A1
:100F50008080800815150A01FC3E7EC0C0C07078F4
:100F60003E77E3C3C7EE7C1E070303038EFC070234
:100F70000207000FC6C611113313010003E0000F72
:100F80007800380E0023F2004739004E19008C001B
:100F9000808C00808C00808C00808C18804639000A
:100FA00043F1002002003006000C180003E00009A5
:100FB0000B160900063E007F00610001003F007132
:100FC00000410043003D000000FF800909120D02AE
:100FD00001318033006300E600CC00E6006300339B
:100FE0000011800C050A0E0105FFF0001000100032
:100FF000100010FF11113313010003E0000F7800FF
:10100000380E0027F20046390046190086188087FE
:10101000E080863080861080861880461900461948
:1010200000200200380E000F780003E000070101E5
:1010300007000FFE05060607010B70D88888D870D8
:101040000E0E1C1805000200020002000200FFFC48
:101050000200020002000200020000000000000086
:10106000FFFC0709090901083C7EC6060C1830E0A0
:10107000FE0709090901083C7EC60E180E06CE7C43
:1010800003040405020E6060C080FF0A152A0D01EA
:10109000FC1FC03C807C80FC80FC80FC807C807CD1
:1010A000803C8004800480048004800480048004E8
:1010B000800480048004800480048002030306020C
:1010C00007C0C0C00605050601FA40780C0CFC03F9
:1010D000090907020860E020202020202020080BBA
:1010E0000B0A01063C7EC3C1C1C1C3627C00FF097B
:1010F00009120D0201CC0066006300330039803311
:101100000063006600CC000F11221202006030E084
:10111000202060204020C0208021002300221806CB
:101120001804280C4808C810FE3008200860081071
:1011300011221302006010E0302020206020C02027
:101140008021802100233E067704630C03080618E3
:101150001C10302060607F1111331301007C0400EB
:10116000FE0C000608001810001E3000062000C605
:101170006000CE40007CC600018600010A00031A10
:1011800000023200063F800402000802001802003C
:101190000A11220C01FB06000600000000000600F8
:1011A000060006000E001C0070006000C000C000B9
:1011B000C0C0F1C07F801F0010172E1101000E006B
:1011C000060003000100000000000380038007C048
:1011D00006C00EE00C600C701830183038383FF83C
:1011E0003FFC600C600CE006C006C00710172E1113
:1011F0000100006000C000800100000000000380CA
:10120000038007C006C00EE00C600C701830183068
:1012100038383FF83FFC600C600CE006C006C007A1
:1012200010172E110100038003C006C004600000E7
:1012300000000380038007C006C00EE00C600C7045
:101240001830183038383FF83FFC600C600CE0066E
:10125000C006C00710162C11010007600DC0000069
:10126000000000000380038007C006C00EE00C6091
:101270000C701830183038383FF83FFC600C600CA8
:10128000E006C006C00710162C120100063006301A
:1012900000000000000001C003C003E0076006601A
:1012A00006700C300C381C18181C3FFC3FFC300634
:1012B00060066007E003C0031018301101000380CE
:1012C00006C0044004400380000000000380038047
:1012D00007C006C006E00C600C701C3018301818EF
:1012E0003FF83FFC600C600CE006C006C00715111B
:1012F0003317010000FFF800F00001F00001B0001A
:1013000003B0000330000730000630000E3FF80C39
:1013100030001C30001FF0003830003030007030DA
:1013200000603000C03FF80D162C0F01FB0FC03FCE
:10133000F0303860186018C000C000C000C000C0A5
:1013400000C000C0006000601870303FF00FC002A5
:101350000003C000E0006007E00B172E0E02003013
:101360000018000C00040000000000FFE0C000C0F6
:1013700000C000C000C000C000C000FFC0C000C06E
:1013800000C000C000C000C000C000FFE00B172E6E
:101390000E02000300060006000C0000000000FF23
:1013A000E0C000C000C000C000C000C000C000FF1E
:1013B000C0C000C000C000C000C000C000C000FF2E
:1013C000E00B172E0E02001E001E0033002100004D
:1013D000000000FFE0C000C000C000C000C000C0AE
:1013E00000C000FFC0C000C000C000C000C000C0FE
:1013F00000C000FFE00B162C0E020033003300008B
:101400000000000000FFE0C000C000C000C000C03D
:1014100000C000C000FFC0C000C000C000C000C0CD
:1014200000C000C000FFE0041717060000C06030D5
:10143000100000303030303030303030303030302C
:1014400030303030041717060200306040C0000012
:10145000C0C0C0C0C0C0C0C0C0C0C0C0C0C0C0C08C
:10146000C006171706000038784CC4000030303032
:1014700030303030303030303030303030300716AF
:1014800016070000C6C60000003030303030303063
:10149000303030303030303030300F112211000019
:1014A0003FC031F03038300C300C3006300630069A
:1014B000FF06300630063006300C301C303831F074
:1014C0003FC00D162C1102000EC01F80000000004E
:1014D0000000E018F018F818F818DC18DC18CE181E
:1014E000C618C718C318C398C1D8C1D8C0F8C0F867
:1014F000C078C0380F18301101000E00060003003C
:10150000010001800000000007C01EF03018600CD0
:10151000600CC006C006C006C006C006C006E00ECD
:10152000600C600C30181EF007C00F18301101005D
:1015300000E000C00180010003000000000007C0BF
:101540001EF03018600C600CC006C006C006C00655
:10155000C006C006E00E600C600C30181EF007C01C
:101560000F18301101000380038006C004400C20D6
:101570000000000007C01EF03018600C600CC006B0
:10158000C006C006C006C006C006E00E600C600CB7
:1015900030181EF007C00F162C11010007600DC097
:1015A00000000000000007C01EF03018600C600C46
:1015B000C006C006C006C006C006C006E00E600C2D
:1015C000701C38381FF007C00F162C110100066080
:1015D000066000000000000007C01EF03018600C1C
:1015E000600CC006C006C006C006C006C006E00EFD
:1015F000600C600C30181EF007C00D0C18170501A8
:10160000C0186030306018C00D80070007000D80E2
:1016100018C030606030C0180F152A1101FE000498
:10162000000E07EC1EF8303C603C606EC0E6C0C6A1
:10163000C1C6C386C306C706EE0E6C0C7C0C7818B8
:101640003EF06FC0E00040000D18301102001C0099
:101650000C0006000200010000000000C018C018C5
:10166000C018C018C018C018C018C018C018C018BA
:10167000C018C018E018603870703FE01FC00D1827
:101680003011020001C001800300020006000000CA
:101690000000C018C018C018C018C018C018C01862
:1016A000C018C018C018C018C018E0186038707092
:1016B0003FE01FC00D1830110200070007000D8029
:1016C0000880184000000000C018C018C018C018DA
:1016D000C018C018C018C018C018C018C018C0184A
:1016E000E018603870703FE01FC00D162C1102002A
:1016F0000CC00CC0000000000000C018C018C018CA
:10170000C018C018C018C018C018C018C018C01819
:10171000C018C018603860303DE01FC00E172E0F93
:10172000000000C001800180030000000000E01CF8
:1017300070187038383018701C600CC00EC00780EC
:101740000380030003000300030003000300030001
:101750000B11220E0200C000C000C000C000FF80BC
:10176000C1C0C0E0C060C060C060C1C0FF80C00038
:10177000C000C000C000C0000C11220D01001F00FD
:101780007F80E0C0C0C0C1C0C380C700C600C60023
:10179000C380C1E0C070C030C030CC30CF60C3C0A7
:1017A0000A12240D010018000C00040006000000BD
:1017B00000001F007B8060C060C000C03FC078C0D8
:1017C000E0C0C0C0C1C077C03CC00A13260D0100F4
:1017D0000300060006000C000800000000001F00C7
:1017E0007B8060C060C000C03FC078C0E0C0C0C0A7
:1017F000C1C077C03CC00A13260D01000E000E00C8
:101800001B0033002180000000001F007B8060C0AF
:1018100060C000C03FC078C0E0C0C0C0C1C077C0D9
:101820003CC00A11220D01001D803F000000000095
:1018300000001F007B8060C000C007C03FC070C0B8
:10184000C0C0C1C0C1C077C03CC00A11220D010098
:10185000318031800000000000001F007B8060C0EC
:1018600060C000C03FC078C0E0C0C0C0C1C077C089
:101870003CC00A14280D01000E001B0011001100CD
:101880001B000E00000000001F007B8060C060C0D5
:1018900000C03FC078C0E0C0C0C0C1C077C03EC07B
:1018A000120C241401001E1F007FBF8061E1800024
:1018B000E0C000C0C03FFFC078C000E0C000C0E092
:1018C000C0C1E1807F3F803E1F000A11220C01FB56
:1018D0001F007F8061C0C0C0C000C000C000C00049
:1018E000C0C061C07F801F0008000F00038001801E
:1018F0001F000A13260D01003000180008000C001C
:101900000600000000001F007F8060C0C0C0C0C093
:10191000FFC0C000C000C0C060C03F801F000A13ED
:10192000260D01000300070006000C00080000005F
:1019300000001F007F8060C0C0C0C0C0FFC0C000EA
:10194000C000C0C060C03F801F000A13260D010008
:101950000C001E001A0033002100000000001F00D0
:101960007F8060C0C0C0C0C0FFC0C000C000C0C099
:1019700060C03F801F000B11220D010031803180BB
:101980000000000000001F003BC060C0E060C060BD
:10199000FFE0C000C000C06060C03BC01F00041278
:1019A00012060000C060301000003030303030309F
:1019B0003030303030300412120602003060C08007
:1019C0000000C0C0C0C0C0C0C0C0C0C0C0C00612FF
:1019D000120600007878CC8400003030303030308F
:1019E00030303030303006111105FF00CCCC000013
:1019F000003030303030303030303030300B112269
:101A00000D010061803F001E00770003801FC07F32
:101A1000C060E0E060C060C060C060C060E0606066
:101A2000C03FC01F000A11220E020019003F000033
:101A30000000000000DF00FF80E1C0C0C0C0C0C0E7
:101A4000C0C0C0C0C0C0C0C0C0C0C0C0C00B132692
:101A50000D0100380018000C000400020000000016
:101A6000001F003FC060C0E0E0C060C060C060C058
:101A700060E0E060C03FC01F000B13260D010003B3
:101A8000800300060004000C00000000001F003F5F
:101A9000C060C0E0E0C060C060C060C060E0E06006
:101AA000C03FC01F000B13260D01000E000E001BCF
:101AB0000011003180000000001F003FC060C0E046
:101AC000E0C060C060C060C060E0E060C03FC01FB8
:101AD000000B11220D01001D803F000000000000DE
:101AE000001F003FC060C0E0E0C060C060C060C0D8
:101AF00060E0E060C03FC01F000B11220D0100310B
:101B00008031800000000000001F003FC060C0E086
:101B1000E0C060C060C060C060E0E060C03FC01F67
:101B2000000E0A1418050203000300030000000061
:101B300000FFFC00000300030003000B0F1E0D015B
:101B4000FE002000601FC03FC061C0E3E0C260C66D
:101B500060CC60D860F8E070C07BC05F00C0000A55
:101B600013260E02003000180018000C00040000BC
:101B7000000000C0C0C0C0C0C0C0C0C0C0C0C0C0A5
:101B8000C0C0C0C0C0E1C077C03CC00A13260E026E
:101B9000000300060006000C00080000000000C062
:101BA000C0C0C0C0C0C0C0C0C0C0C0C0C0C0C0C035
:101BB000C0E1C077C03CC00A13260E02000C001E14
:101BC000001E003300210000000000C0C0C0C0C0E3
:101BD000C0C0C0C0C0C0C0C0C0C0C0C0C0E1C0772D
:101BE000C03CC00A11220E02003300330000000086
:101BF000000000C0C0C0C0C0C0C0C0C0C0C0C0C025
:101C0000C0C0C0C0C0E1C07FC03CC00B172E0C01DB
:101C1000FB0300030006000C0000000000C060C0D1
:101C2000C0E0C061C07180318033803B001B001E6A
:101C3000000E000E000C000C00DC00F80070000B21
:101C4000162C0E02FBC000C000C000C000C000CFB8
:101C500000FBC0E0C0E0E0C060C060C060C060E009
:101C6000E0E0C0FBC0CF00C000C000C000C000C0AA
:101C7000000B162C0D01FB318031800000000000AC
:101C800000C060E06060E060C071C0318039801BDE
:101C9000801B001F000E000E000E000C000C001C2C
:101CA00000180001070D00FE09015F02CF20FFFEB2
:101CB0000BFE0AFE0D0070321979808080808080D2
:101CC000800080283373A0A0A01357775050F8509D
:101CD000F850501357772078A07028F020026979C7
:101CE00044A4481010204894880267776090906060
:101CF0009488743813738080802239792040408022
:101D0000808040402022397980404020202040407F
:101D1000800465754830FC30481455752020F82043
:101D200020114373706080165171F821337340E0C5
:101D300040125979080810102040408080026979CB
:101D40003048848484848448301259792060A020EB
:101D500020202020F80269797884840408304080AB
:101D6000FC026979FC04081038040484780269795B
:101D7000081828488888FC0808026979FC8080B81F
:101D8000C40404847802697938408080B8C48484AB
:101D900078026979FC04081010202040400269791B
:101DA0007884848478848484780269797884848CC3
:101DB000740404087021387840E040000040E0409E
:101DC0001148782070200000706080125979081046
:101DD00020408040201008046474FC0000FC12596C
:101DE000798040201008102040800269797884842E
:101DF0000408101000100269797884849CA4AC94C3
:101E000080780269793048848484FC8484840269FF
:101E100079F844444478444444F8026979788480E9
:101E2000808080808478026979F844444444444442
:101E300044F8026979FC808080F0808080FC02692F
:101E400079FC808080F0808080800269797884804D
:101E500080809C848C7402697984848484FC84846A
:101E60008484125979F820202020202020F802694B
:101E7000791C080808080808887002697984889025
:101E8000A0C0A09088840269798080808080808052
:101E900080FC02697984CCCCB4B4848484840269E3
:101EA000798484C4A4948C84848402697978848439
:101EB000848484848478026979F8848484F88080B6
:101EC0008080016A7A788484848484A4947804026B
:101ED0006979F8848484F8A0908884026979788488
:101EE00080807804048478125979F82020202020FA
:101EF0002020200269798484848484848484780204
:101F0000697984848448484830303002697984840F
:101F10008484B4B4CCCC8402697984844848304841
:101F2000488484125979888850502020202020022B
:101F30006979FC04081030204080FC114B7BF08054
:101F40008080808080808080F0125979808040403D
:101F50002010100808114B7BF010101010101010FA
:101F60001010F0185373205088016171FC2A2272FE
:101F7000804002667678047C848C74026979808063
:101F800080B8C48484C4B8026676788480808478FB
:101F9000026979040404748C84848C7402667678F3
:101FA00084FC80847802697938444040F0404040A5
:101FB00040006878748888708078847802697980B5
:101FC0008080B8C4848484841258782000602020E3
:101FD0002020F8105A7A0800180808080888887025
:101FE0000269798080808890E090888412597960B5
:101FF00020202020202020F8125676D0A8A8A8A8BB
:1020000088026676B8C48484848402667678848480
:10201000848478006878B8C484C4B88080800068FC
:1020200078748C848C74040404026676B84440404E
:102030004040026676788460188478026878404070
:10204000F04040404438026676848484848C741264
:1020500056768888885050201256768888A8A8A876
:1020600050026676844830304884006878848484DE
:102070008C74048478026676FC08102040FC115BA6
:102080007B3840404020C0204040403832197980A1
:102090008080808080808080115B7BE01010102029
:1020A0001820101010E018537348A890FFFFFFFF8E
:1020B000FFFFFFFFFFFFFFFFFFFFFFFFFFFFFFFF30
:1020C000FFFFFFFFFFFFFFFFFFFFFFFFFF0D0070A0
:1020D0003219798000808080808080801358782039
:1020E00070A8A0A0A8702002697938444040E04060
:1020F0004044B803667684784848788402597988E1
:10210000885050F820F82020321979808080800093
:1021100080808080124A7A609080609090601090F9
:102120006019427290900269797884B4A4A4A4B42E
:102130008478145777700878887800F803677714E4
:102140002850A0502814145373F80808164171F051
:102150000269797884B4ACACB4AC84781A5171F863
:10216000174474609090601357772020F820200067
:10217000F816367640A0204080E0163676E0204003
:1021800020A0402A2272408001677784848484CC16
:10219000B4800269797CE8E8E868282828282621A4
:1021A00071C0202272408016367640C0404040E028
:1021B0001546766090906000F0036777A050281471
:1021C0002850A0026A7A40C0404044EC14141C0419
:1021D000026A7A40C0404048F40408101C026A7A3F
:1021E000E0204020A44C14141C0402697920002033
:1021F000204080848478026A7A20100030488484E9
:10220000FC8484026A7A10200030488484FC848430
:10221000026A7A30480030488484FC8484026A7AF6
:1022200064980030488484FC8484026A7A484800B8
:1022300030488484FC8484026A7A30483030488490
:1022400084FC84840269795CA0A0A0B8E0A0A0BC52
:10225000006B7B7884808080808084781020026A84
:102260007A201000FC8080F08080FC026A7A1020C6
:1022700000FC8080F08080FC026A7A304800FC809C
:1022800080F08080FC026A7A484800FC8080F08000
:1022900080FC125A7A402000F82020202020F812DA
:1022A0005A7A204000F82020202020F8125A7A2064
:1022B0005000F82020202020F8125A7A888800F850
:1022C0002020202020F8026979F8444444E4444462
:1022D00044F8026A7A64980084C4A4A4948C8402AA
:1022E0006A7A20100078848484848478026A7A1060
:1022F000200078848484848478026A7A3048007864
:10230000848484848478026A7A64980078848484DB
:10231000848478026A7A4848007884848484847843
:10232000036676844830304884016B7B04788C9453
:1023300094A4A4A4C47880026A7A201000848484BF
:1023400084848478026A7A1020008484848484845B
:1023500078026A7A30480084848484848478026AAB
:102360007A48480084848484848478125A7A1020BD
:10237000008888502020202002697980F884848495
:10238000F8808080125979609090A0A0908888B0E1
:1023900002697920100078047C848C7402697910B9
:1023A000200078047C848C740269793048007804B9
:1023B0007C848C7402697964980078047C848C74C1
:1023C00002697948480078047C848C74026A7A3007
:1023D00048300078047C848C7402667668147C90A3
:1023E0009468006878788480808478102002697905
:1023F0002010007884FC80847802697910200078AD
:1024000084FC8084780269793048007884FC808478
:10241000780269794848007884FC80847812597978
:102420004020006020202020F812597920400060D0
:1024300020202020F8125979609000602020202070
:10244000F81259799090006020202020F8026A7AD2
:1024500048305008788484848478026979649800CC
:10246000B8C48484848402697920100078848484C8
:1024700084780269791020007884848484780269E1
:10248000793048007884848484780269796498007B
:1024900078848484847802697948480078848484C4
:1024A0008478135777202000F800202001687804F2
:1024B000788C94A4C4788002697920100084848484
:1024C000848C74026979102000848484848C740262
:1024D0006979304800848484848C7402697948481E
:1024E00000848484848C74006B7B1020008484843A
:1024F0008C74048478006A7A8080B8C48484C4B8F8
:102500008080006B7B4848008484848C74048478C9
:10251000DA1911241FBECFEFD8E0DEBFCDBF11E026
:10252000A0E0B1E0E2EAFCE402C005900D92AE3317
:10253000B107D9F722E0AEE3B1E001C01D92A533A7
:10254000B207E1F715E2C2E1D5E204C02297FE012D
:102550000E942E26C031D107C9F70E9416160C948E
:102560004F260C94000020E1FC0120830895CF92B7
:10257000DF92EF92FF920F931F93CF93DF93EC01C3
:102580000D811E8189819A81801B910BBC0122F4EF
:1025900066277727681B790B882777FD8095982F0A
:1025A0000E94E31A6B017C018F819885801B910B3F
:1025B000BC0122F466277727681B790B882777FDF3
:1025C0008095982F0E94E31A28EB3EE145E550E400
:1025D0000E94971B9B01AC01C701B6010E94DF1945
:1025E0006B017C0189859A85801B910BBC0122F4CB
:1025F00066277727681B790B882777FD8095982FAA
:102600000E94E31A20E030E040E250E40E94971B71
:102610009B01AC01C701B6010E94DF190E94B01AEC
:102620009B01772324F422273327261B370BB9017C
:10263000882777FD8095982F0E94E31ADF91CF912C
:102640001F910F91FF90EF90DF90CF900895CF9260
:10265000DF92EF92FF920F931F93CF93DF93EC01E2
:102660000D811E818B819C81801B910BBC0122F40A
:1026700066277727681B790B882777FD8095982F29
:102680000E94E31A6B017C018F819885801B910B5E
:10269000BC0122F466277727681B790B882777FD12
:1026A0008095982F0E94E31A21E73DE34AE650E423
:1026B0000E94971B9B01AC01C701B6010E94DF1964
:1026C0006B017C0189859A85801B910BBC0122F4EA
:1026D00066277727681B790B882777FD8095982FC9
:1026E0000E94E31A20E030E040E350E40E94971B90
:1026F0009B01AC01C701B6010E94DF190E94B01A0C
:102700009B01772324F422273327261B370BB9019B
:10271000882777FD8095982F0E94E31ADF91CF914B
:102720001F910F91FF90EF90DF90CF900895ECEB09
:10273000F0E0108284EA808380818823ECF7809126
:10274000B900887F883019F088EF80937C0180E29F
:102750008093BB0084E88093BC00ECEBF0E08081C8
:102760008823ECF780917C01811108C08091B90029
:10277000887F883119F088E180937C016093BB00E9
:1027800084E88093BC00ECEBF0E080818823ECF7D8
:1027900080917C01811108C08091B900887F8832C6
:1027A00019F088E280937C0184EA8093BC00ECEB12
:1027B000F0E080818823ECF78091B900887F803138
:1027C00019F080E180937C0181E28093BB0084E872
:1027D0008093BC00ECEBF0E080818823ECF78091E3
:1027E0007C01811108C08091B900887F803419F084
:1027F00080E480937C0184EC8093BC00ECEBF0E0FF
:1028000080818823ECF780917C01811108C0809140
:10281000B900887F803519F080E580937C01809134
:10282000BB0094E89093BC00ECEBF0E0908199231E
:10283000ECF72091BB0090917C01911108C0909120
:10284000B900987F983519F098E590937C0194E948
:102850009093BC0090E0922B0895CF93DF93EC010E
:1028600067E00E9497139A83898369E0CE010E94F2
:1028700097139C838B8368E0CE010E9497139E83FD
:102880008D836AE0CE010E94971398878F836BE057
:10289000CE010E9497139A878987DF91CF9108957F
:1028A0006CE00E9497130895ECEBF0E0108284EA4C
:1028B000808380818823ECF78091B900887F8830FD
:1028C00019F088E080937C0180E28093BB0084E86B
:1028D0008093BC00ECEBF0E080818823ECF78091E2
:1028E0007C01811108C08091B900887F883119F07E
:1028F00088E180937C016093BB0084E88093BC00F6
:10290000ECEBF0E080818823ECF780917C01811171
:1029100008C08091B900887F883219F088E28093DE
:102920007C014093BB0084E88093BC00ECEBF0E0BA
:1029300080818823ECF780917C01811108C080910F
:10294000B900887F883219F088E280937C01509327
:10295000BB0084E88093BC00ECEBF0E0808188232E
:10296000ECF780917C01811108C08091B900887FCB
:10297000883219F088E280937C0184E98093BC005E
:102980000895CF93DF93EC0140E150E060E00E94B6
:102990005414CE010E94501421E0869709F020E0E3
:1029A000822FDF91CF9108959B012150310912169A
:1029B00013068CF4DC01A60FB71FFC0140E050E0C9
:1029C00080819E9191938C934F5F5F4F215031098D
:1029D00042175307ACF30895EF92FF920F931F93A2
:1029E000CF93DF938B017A01009781F0FB01C0E068
:1029F000D0E02AE030E02196B9010E941826805DDF
:102A00008193862F972F0097B1F702C0C0E0D0E0E6
:102A1000CE15DF0564F4F801EC0FFD1FC8018E0D23
:102A20009F1D20E32193E817F907E1F7E701BE01B5
:102A3000C8010E94D414F801EC0FFD1F1082CE01D2
:102A4000DF91CF911F910F91FF90EF9008952F92FA
:102A50003F924F925F926F927F928F929F92AF922E
:102A6000BF92CF92DF92EF92FF920F931F93CF937B
:102A7000DF936B017C01EA0189010E94B01A4B01CE
:102A80005C0141E050E0BE01C4010E94EC141C0155
:102A900001151105B1F1FE01E80FF91F8EE28083E7
:102AA000B801882777FD8095982F0E94E31A9B0133
:102AB000AC0160E070E080E291E40E94FA1B2B011F
:102AC0003C01B401882777FD8095982F0E94E31A76
:102AD0009B01AC01C701B6010E94DF199B01AC014B
:102AE0008FEF281A380AC20DD31DC301B2010E940C
:102AF000971B0E94B01ADC01CB01A801BE010E9405
:102B0000EC14DF91CF911F910F91FF90EF90DF9028
:102B1000CF90BF90AF909F908F907F906F905F907D
:102B20004F903F902F9008950F9363EA7CE18DE7DB
:102B300091E00E94922007E02CE047E362E08DE7FD
:102B400091E00E94CA2303E022E049E360E08DE7C0
:102B500091E00E94CA230F9108950F9363EA7CE1EC
:102B60008DE791E00E94922007E02CE047E362E0CD
:102B70008DE791E00E947C2326E047E362E08DE749
:102B800091E00E94CA2303E022E049E360E08DE780
:102B900091E00E94CA230F9108950F9363EA7CE1AC
:102BA0008DE791E00E94922007E02CE047E362E08D
:102BB0008DE791E00E947C2303E022E049E360E09E
:102BC0008DE791E00E94CA230F9108950F9361E071
:102BD00081E00E94B11D082F60E081E00E94B11DDC
:102BE000282F4FEF68E071E08DE791E00E949F2170
:102BF0008DE791E00E9478240F91089517B880E244
:102C000088B91AB81BB88BE284B915B886E08093EE
:102C10007C0087EC80937A0016BC89EF87BD82E048
:102C200084BD94E895BD80936E000895CF93DF93A3
:102C3000CDB7DEB7CE56D1090FB6F894DEBF0FBEC2
:102C4000CDBF0E94FE150E94E615789480E2809325
:102C5000B8001092B9001092BA0085E08093BC00D1
:102C600081E791E00E94C114FE01EB59FF4F8AE019
:102C7000DF01982F1D929A95E9F73A97DF01982F77
:102C80001D929A95E9F73A97DF01982F1D929A9530
:102C9000E9F73A97DF01982F1D929A95E9F73A974D
:102CA000DF01982F1D929A95E9F73A97DF01982F47
:102CB0001D929A95E9F73A97DF01982F1D929A9500
:102CC000E9F73A97DF01982F1D929A95E9F73A971D
:102CD000DF011D928A95E9F7749784E1DF011D9267
:102CE0008A95E9F7EAE7F0E080818064808380815B
:102CF00086FDFDCF109268011092670184E090E09C
:102D0000EAE7F0E0A8E7B0E020812064208320819A
:102D100026FDFDCF2D913C91119740916701509177
:102D20006801240F351F30936801209367010197D4
:102D3000009751F7609167017091680176956795EA
:102D40007695679580E090E00E94E11A0E94461C0B
:102D50000E94B51A709368016093670181E08093C7
:102D60003E018CE390E09093700180936F0111E03D
:102D70006894772471F880913F01882309F4E2C0B8
:102D800081E791E00E942D1481E791E00E94B71243
:102D90004B015C01609358017093590180935A0173
:102DA00090935B0181E791E00E9427136B017C0106
:102DB000609354017093550180935601909357018D
:102DC00021E931E340E95AE3C501B4010E94971BB0
:102DD0004B015C012AE037ED43EA5AE3C701B60133
:102DE0000E94971B9B01AC01C501B4010E94E01930
:102DF00020E030E040E05FE30E94971B60935001C9
:102E000070935101809352019093530120914C0192
:102E100030914D0140914E0150914F016091480118
:102E20007091490180914A0190914B010E94E019F3
:102E3000609348017093490180934A0190934B013C
:102E400020916F01309170012F5F3F4F30937001DF
:102E500020936F0120916F01309170012C33310567
:102E60005CF120914401309145014091460150911F
:102E700047010E94E01960934401709345018093DB
:102E800046019093470120E030E040E752E40E9481
:102E9000481A6093400170934101809342019093DE
:102EA00043011092700110926F0123E030E0AE01F7
:102EB000495B5F4F0E94271580913E018823F9F0FE
:102EC000609167017091680180E090E00E94E11AD2
:102ED0002FEA3FE147E85CE30E94971B60935C01A7
:102EE00070935D0180935E0190935F0122E030E07A
:102EF000AE01435C5F4F0E94271510923E01809106
:102F000065019091660142E050E0BE016D5C7F4F2B
:102F10000E94EC14809163019091640142E050E0C2
:102F2000BE01675D7F4F0E94EC148091610190911A
:102F3000620142E050E0BE01615E7F4F0E94EC14EE
:102F400010923F01609158017091590180915A018E
:102F500090915B0121E030E0AE014B595F4F0E9440
:102F600027156091540170915501809156019091FF
:102F7000570121E030E0AE01455A5F4F0E9427150E
:102F800060915001709151018091520190915301D3
:102F900024E030E0AE014F5A5F4F0E942715809128
:102FA0007C0143E050E0BE016F5F7F4F90E00E94E4
:102FB000EC148DE791E00E94BC21B12C0F2EF3E0C0
:102FC000AF2EF02D04E063EA7CE18DE791E00E94F2
:102FD00092209E01215E3F4F4FE364E18DE791E037
:102FE0000E940A2024E231E04FE362E28DE791E0A3
:102FF0000E940A209E01275D3F4F4FE369E28DE763
:1030000091E00E940A2024E231E04FE367E38DE77C
:1030100091E00E940A209E012D5C3F4F4FE36EE33A
:103020008DE791E00E940A2023E333E343E150E47B
:1030300060915C0170915D0180915E0190915F01F2
:103040000E94931B882314F00E949415C0905C0189
:10305000D0905D01E0905E01F0905F0123E333E3E7
:1030600043E150E4C701B6010E94441A882364F486
:1030700026E636E646E050E4C701B6010E94931BFF
:10308000882314F00E94AD1526E636E646E050E4AB
:1030900060915C0170915D0180915E0190915F0192
:1030A0000E94441A882314F40E94CD15C090500148
:1030B000D0905101E0905201F090530120E030E0B7
:1030C00040E450E4C701B6010E94441A88237CF111
:1030D00020E030E040EA50E4C701B6010E94441A03
:1030E0008823FCF020E030E040EE50E4C701B60158
:1030F0000E94441A8823BCF020E030E04EE753E4FD
:10310000C701B6010E94441A88237CF020E030E019
:10311000A901C701B6010E94441A88235CF4802FDC
:1031200007C0812F05C0872D03C08A2D01C08B2DBC
:10313000809360018091600143E050E0BE016B5ECE
:103140007F4F90E00E94EC14E0916001F0E0EE0F00
:10315000FF1FE050FF4F208131814FE360E58DE795
:1031600091E00E940A2064E172E08DE791E00E9404
:1031700092202CE131E043E16AE08DE791E00E948A
:103180000A2020E030E040E251E46091500170916B
:10319000510180915201909153010E94441A882359
:1031A0004CF49E012F5A3F4F4CE269E18DE791E0CC
:1031B0000E940A2020E030E040E251E4609150019A
:1031C0007091510180915201909153010E94931B83
:1031D00088234CF09E012F5A3F4F4CE26CE08DE764
:1031E00091E00E940A2063EA7CE18DE791E00E9471
:1031F00092208DE791E00E94C2218111E4CE88ECFB
:1032000090E00E94141EB7CD1F920F920FB60F923E
:1032100011242F933F934F935F936F937F938F93DB
:103220009F93AF93BF93EF93FF9380916D01909124
:103230006E01019690936E0180936D0180916D01F6
:1032400090916E018D37910508F4A3C081E08093C1
:103250003F0180916501909166010196909366010E
:103260008093650180916D0190916E018D57910958
:1032700090936E0180936D0180916501909166013C
:10328000CC9708F486C08091650190916601CC9737
:10329000909366018093650180916B0190916C0120
:1032A000019690936C0180936B01809163019091E2
:1032B000640101969093640180936301809163019E
:1032C00090916401CC9708F1809163019091640121
:1032D000CC979093640180936301809161019091F8
:1032E0006201019690936201809361018091610176
:1032F000909162018336910520F010926201109244
:10330000610110926A011092690110926801109295
:10331000670184E090E0EAE7F0E0A8E7B0E0208110
:1033200020642083208126FDFDCF2D913C911197B3
:103330004091670150916801240F351F3093680157
:10334000209367010197009751F760916701709191
:103350006801769567957695679580E090E00E9484
:10336000E11A0E94461C0E94B51A7093680160938E
:10337000670181E080933E0110926C0110926B0115
:103380008091690190916A01019690936A018093FE
:103390006901FF91EF91BF91AF919F918F917F91C3
:1033A0006F915F914F913F912F910F900FBE0F90B2
:1033B0001F90189581E791E00E94B312089550582C
:1033C000BB27AA270ED075C166D130F06BD120F093
:1033D00031F49F3F11F41EF45BC10EF4E095E7FB5E
:1033E00051C1E92F77D180F3BA17620773078407B9
:1033F000950718F071F49EF58FC10EF4E0950B2E31
:10340000BA2FA02D0B01B90190010C01CA01A00136
:103410001124FF27591B99F0593F50F4503E68F191
:103420001A16F040A22F232F342F4427585FF3CFD2
:10343000469537952795A795F0405395C9F77EF4A3
:103440001F16BA0B620B730B840BBAF09150A1F0EC
:10345000FF0FBB1F661F771F881FC2F70EC0BA0F72
:10346000621F731F841F48F4879577956795B795FA
:10347000F7959E3F08F0B3CF9395880F08F09927F2
:10348000EE0F979587950895D9D008F481E00895B7
:103490000CD00FC107D140F0FED030F021F45F3FD7
:1034A00019F0F0C0511139C1F3C014D198F3992328
:1034B000C9F35523B1F3951B550BBB27AA276217F8
:1034C0007307840738F09F5F5F4F220F331F441F3D
:1034D000AA1FA9F333D00E2E3AF0E0E830D0915075
:1034E0005040E695001CCAF729D0FE2F27D0660F62
:1034F000771F881FBB1F261737074807AB07B0E8A1
:1035000009F0BB0B802DBF01FF2793585F4F2AF0B6
:103510009E3F510568F0B6C000C15F3FECF3983E96
:10352000DCF3869577956795B795F7959F5FC9F713
:10353000880F911D9695879597F90895E1E0660F9C
:10354000771F881FBB1F621773078407BA0720F015
:10355000621B730B840BBA0BEE1F88F7E09508957E
:1035600004D06894B111D9C00895BCD088F09F5799
:1035700090F0B92F9927B751A0F0D1F0660F771FBF
:10358000881F991F1AF0BA95C9F712C0B13081F09F
:10359000C3D0B1E00895C0C0672F782F8827B85FE7
:1035A00039F0B93FCCF3869577956795B395D9F700
:1035B0003EF490958095709561957F4F8F4F9F4F0A
:1035C0000895E89409C097FB3EF490958095709516
:1035D00061957F4F8F4F9F4F9923A9F0F92F96E95F
:1035E000BB279395F695879577956795B795F111D4
:1035F000F8CFFAF4BB0F11F460FF1BC06F5F7F4F71
:103600008F4F9F4F16C0882311F096E911C0772382
:1036100021F09EE8872F762F05C0662371F096E88B
:10362000862F70E060E02AF09A95660F771F881F5A
:10363000DAF7880F9695879597F90895990F0008FE
:10364000550FAA0BE0E8FEEF16161706E807F90774
:10365000C0F012161306E407F50798F0621B730B0F
:10366000840B950B39F40A2661F0232B242B252B90
:1036700021F408950A2609F4A140A6958FEF811D33
:10368000811D089597F99F6780E870E060E00895D4
:103690009FEF80EC089500240A941616170618066A
:1036A0000906089500240A94121613061406050646
:1036B0000895092E0394000C11F4882352F0BB0FD7
:1036C00040F4BF2B11F460FF04C06F5F7F4F8F4F3A
:1036D0009F4F089557FD9058440F551F59F05F3F75
:1036E00071F04795880F97FB991F61F09F3F79F024
:1036F00087950895121613061406551FF2CF4695A6
:10370000F1DF08C0161617061806991FF1CF869527
:103710007105610508940895E894BB27662777270B
:10372000CB0197F908958ADF08F48FEF08950BD045
:10373000C0CFB1DF28F0B6DF18F0952309F0A2CF93
:10374000A7CF1124EACFC6DFA0F3959FD1F3950F41
:1037500050E0551F629FF001729FBB27F00DB11D15
:10376000639FAA27F00DB11DAA1F649F6627B00DA5
:10377000A11D661F829F2227B00DA11D621F739F8E
:10378000B00DA11D621F839FA00D611D221F749F9C
:103790003327A00D611D231F849F600D211D822FE3
:1037A000762F6A2F11249F5750408AF0E1F088232A
:1037B0004AF0EE0FFF1FBB1F661F771F881F915037
:1037C0005040A9F79E3F510570F05CCFA6CF5F3FF8
:1037D000ECF3983EDCF3869577956795B795F7956A
:1037E000E7959F5FC1F7FE2B880F911D96958795F2
:1037F00097F90895FA01EE0FFF1F30962105310564
:1038000099F16115710561F48038BFE39B0749F1B7
:1038100068949038810561F08038BFEF9B0741F0D4
:10382000992342F5FF3FE1053105210511F1E894A7
:103830000894E795D901AA2329F4AB2FBE2FF85F8E
:10384000D0F310C0FF5F70F4A695E0F7F73950F0A1
:1038500019F0FF3A38F49F779F930CD00F9007FC34
:10386000905808953EF014CF60E070E080E89FE348
:1038700008954FE79F775F934F933F932F93E7D040
:103880002F913F914F915F9152DF25C02BDFE0F0E8
:103890009E37D8F09639B8F49E3848F4672F782FC1
:1038A0008827985FF9CF8695779567959395953991
:1038B000D0F3B62FB1706B0F711D811D20F4879569
:1038C00077956795939533C04DC027CF19F40EF0C7
:1038D000D9CE22CFDDCE06DFC8F39638C0F707F881
:1038E0000F92E8942BE33AEA48EB5FE72EDF0F9262
:1038F0000F920F924DB75EB70F92E9D0E8E6F0E075
:103900003FD04F915F91EF91FF91E595EE1FFF1F23
:1039100049F0FE57E0684427EE0F441FFA95E1F79F
:103920004195550B5BD00F9007FE4FC0089588233B
:1039300071F4772321F09850872B762F07C06623E8
:1039400011F499270DC09051862B70E060E02AF0A9
:103950009A95660F771F881FDAF7880F96958795D7
:1039600097F908959F3F31F0915020F4879577950E
:103970006795B795880F911D9695879597F9089546
:10398000DF93CF931F930F93FF92EF92DF927B0110
:103990008C01689405C0DA2EEF01D5DEFE01E894B3
:1039A000A5912591359145915591AEF3EF0119DD22
:1039B000FE019701A801DA9479F7DF90EF90FF906C
:1039C0000F911F91CF91DF9108959B01AC0160E0B1
:1039D00070E080E89FE35CCD55CEC4CF83DEE8F392
:1039E0009923D9F3940F511DBBF39150504094F09B
:1039F00059F0882332F0660F771F881F915050408E
:103A0000C1F79E3F510544F7880F911D9695879504
:103A100097F908955F3FACF0983E9CF0BB278695E0
:103A200077956795B79508F4B1609395C1F7BB0F8B
:103A300058F711F460FFE8CF6F5F7F4F8F4F9F4FB4
:103A4000E3CF6BCE0EF08ECF23CE68941BCE4ADE32
:103A5000C8F39923D1F3C6F3DF93CF931F930F934A
:103A6000FF92C92FDD2788232AF02197660F771F41
:103A7000881FDAF720E030E040E85FEB9FE3883909
:103A800020F0803E30F021968F779ADCE0E9F0E07C
:103A900003C096DCEDEBF0E073DF8B01BE01EC01BF
:103AA000FB2E6F5771097595771F880B990B8BDD6E
:103AB00028E132E741E35FE346DEAF2D9801AE0136
:103AC000FF900F911F91CF91DF918BDCF2CDFA0126
:103AD000DC01AA0FBB1F9B01AC01BF5728F42227B2
:103AE0003327442750781FC0B75188F4AB2F0024E8
:103AF000469537952795011CA395D2F3002069F0D0
:103B0000220F331F441FB395DAF30DD058CC613028
:103B10007105A0E88A07B94630F49B01AC0166271D
:103B2000772788279078309621F02083318342834D
:103B300053830895CF93DF9300D0CDB7DEB770E005
:103B4000660F771F680F791F42E050E0CE010196A3
:103B50000E94462689819A810F900F90DF91CF9124
:103B60000895880F880F880F860F0895CF93C82F68
:103B7000682F6695669566958AEC91E00E949A1D7D
:103B8000FC014081C77021E030E0C90102C0880F0C
:103B9000991FCA95E2F7842B8083CF910895CF9324
:103BA000DF93C82FD62F682F66956695669582ECB1
:103BB00091E00E949A1DFC01D11111C04FB7F894F9
:103BC0005081C77021E030E0C90102C0880F991F01
:103BD000CA95E2F78095852380834FBF0FC04FB70A
:103BE000F8945081C77021E030E0C90102C0880F0D
:103BF000991FCA95E2F7852B80834FBFDF91CF9144
:103C00000895860F911DFC0183A18F3F11F00E9442
:103C1000B61D0895860F911DFC0183A18F3F19F0F9
:103C2000642F0E94CF1D0895009741F02EEC37E0DD
:103C3000F9013197F1F701970097D1F70895BF92F5
:103C4000CF92DF92EF92FF920F931F93CF93DF9368
:103C50008C01EB01B42E790180E14817C1F1841782
:103C600020F0EAE04E1741F040C0F1E14F17B1F10A
:103C700085E1481761F039C042E0C8010E94C424C0
:103C80004EEE51E0BE01C8010E940A252EC0CA8036
:103C9000DB8046EE51E0C8010E940A25F60144810E
:103CA000406BBE01C8010E94F82441E0BE01C8017A
:103CB0000E94EE24AE01B801C6010E942B22882387
:103CC000D9F040E0BE01C8010E94CE240EC04DEDE7
:103CD00051E0C8010E940A2581E00FC042ED51E089
:103CE000C8010E940A2581E008C097014B2DBE0142
:103CF000C8010E94A22201C080E0DF91CF911F91F4
:103D00000F91FF90EF90DF90CF90BF900895FC014E
:103D1000E60FF11D849190E0982F88273196E49169
:103D20008E0F911D0895FC01849108950E94931EA9
:103D3000882311F0823011F486E0089583E008951D
:103D400080E0089566E00E94871E089568E00E9462
:103D5000871E08950A96FC01849108950B96FC0134
:103D600084910895AF92BF92CF92DF92EF92FF922B
:103D70000F931F93CF93DF937C01B62EDC01149633
:103D8000CD91DC911597CE010E94931E182FF7015B
:103D9000848195810E94961E082F113019F0AA2463
:103DA000AA9404C00F2EFFE0AF2EF02DD701149679
:103DB0008D919C9115970E94AA1ED82EF70184819F
:103DC00095810E94AE1EC82ED70114968D919C91AC
:103DD00015970E94A61EB0E6BB1548F4009739F06F
:103DE000C80FD91F0F2EF1E6DF2EF02D12C0F701FC
:103DF000848195810E94A21EF0E4FB1548F400978F
:103E000039F0C80FD91F0F2EF1E4DF2EF02D01C0BD
:103E10006196CB1490F4D70150961C92509753960C
:103E20001C92539754961C92549751961C925197FA
:103E300052961C9280E090E073C0CD1408F468C0E4
:103E4000202F30E08E01FE0184918F3F11F42196E6
:103E50005BC0DB1051C06E01D70114968D919C910F
:103E600015970E94931E882311F0823001F5F80106
:103E70000491D70153960C93F6013196E491D70142
:103E80005496EC93F6013396E491D7015096EC9357
:103E9000F6013496E491D7015196EC93F6013596EC
:103EA000E491D7015296EC938C2F9D2F39C0FE01DF
:103EB0000491802F8F708250D70152968C93529725
:103EC00002950F7051960C93FE013196E4918E2F5E
:103ED0008F70D70154968C935497E295EF70539658
:103EE000EC93FE013296E491E295EF70D701509683
:103EF000EC938C2F9D2F14C0FE013296E491EA21A1
:103F0000CE0FD11DC20FD31FDC1411F0D3949ACF62
:103F1000F701108A138A148A118A128A80E090E0CD
:103F2000DF91CF911F910F91FF90EF90DF90CF9095
:103F3000BF90AF9008956F927F928F929F92AF92B1
:103F4000BF92CF92DF92EF92FF920F931F93CF9386
:103F5000DF936C01162F742E622F0E94B21E7C011B
:103F6000009709F447C0F601848195810E94961E4E
:103F7000B82EF601D389C4896188610E9289791AB5
:103F8000972C9C1A0C2F2D2F492D662DC6010E94AF
:103F90009224811103C0F60180892DC0D95F8D2E36
:103FA000869486948694CC2311F1EB0CF11CAA2400
:103FB000AA94A80CB12CFFEFAF1ABF0A13C0FE01E0
:103FC000049120E0492D612FC6010E94D221219643
:103FD000185F8C2F8E19881590F3EA0CFB1C9394B4
:103FE000971429F08820D9F3162DE701E8CFF601C0
:103FF000808901C080E0DF91CF911F910F91FF90E8
:10400000EF90DF90CF90BF90AF909F908F907F9078
:104010006F900895DF92EF92FF920F931F93CF93CB
:10402000DF938C01F62ED42EE901DC015596ED913B
:10403000FC9156970995D80E2881222369F0219684
:10404000E12C4D2D6F2DC8010E949B1FF80EE80E2C
:1040500029912111F6CF01C0E12C8E2DDF91CF9156
:104060001F910F91FF90EF90DF900895DC0114965F
:104070008D919C911597009709F44DC057962C91FE
:10408000579721110DC0FC013596E4915896EC9399
:104090005897FC013C96849159968C9359971BC074
:1040A000213069F4FC013F96E4915896EC935897BF
:1040B000FC017096849159968C9359970CC0FC0121
:1040C0003D96E4915896EC935897FC013E96849166
:1040D00059968C93599758968C915897992787FDA4
:1040E000909559962C915997821B910927FD93958C
:1040F0005A962C915A97203461F0829FC001112466
:104100000024880F991F001C880F991F001C892FFD
:10411000902D5B968C93089520EA3EE1FC01368B4E
:10412000258B0895CF93DF93EC018C819D818617B9
:10413000970749F07D836C83CE010E94362080EA88
:104140009EE19E8B8D8BDF91CF9108951F93CF932E
:10415000DF93EC011D821C821F821E82198681E082
:10416000888782E28A871F861E86FE01B39680E0DA
:104170009FEF91938F5F8E30E1F711E018A3CE018E
:104180000E948C201F8B188E198E80E48A8F1B8EC4
:1041900081E994E29AAB89ABDF91CF911F910895A9
:1041A000DB01ED91FC91099508950F931F93CF9337
:1041B000DF93EC018B01E9A9FAA982E0099520E0DF
:1041C00030E04AE0B801CE010E94D020182FE9A9C2
:1041D000FAA983E00995E9A9FAA980E00995812F58
:1041E000DF91CF911F910F9108950F931F93CF935C
:1041F000DF93EC018B01E9A9FAA982E00995E9A90D
:10420000FAA981E0099520E030E044E1B801CE014F
:104210000E94D0209E012D5C3F4F47E1B801CE01A6
:104220000E94D020E9A9FAA980E00995DF91CF91F9
:104230001F910F910895FF920F931F93CF93DF93D8
:10424000EC018B01E9A9FAA982E00995E9A9FAA98B
:1042500081E0099520E030E045E1B801CE010E94FF
:10426000D020F82E882341F09E012D5C3F4F47E17E
:10427000B801CE010E94D020E9A9FAA980E00995F1
:104280008F2DDF91CF911F910F91FF900895CF93C4
:10429000DF931F92CDB7DEB79E012F5F3F4F46E4FD
:1042A0000E94D02089810F90DF91CF910895CF9304
:1042B000DF931F92CDB7DEB79E012F5F3F4F47E4DC
:1042C0000E94D02089810F90DF91CF91089520E046
:1042D00030E048E40E94D0200895CF93DF93EC01B2
:1042E0006A817B810E94472188836A817B81CE011C
:1042F0000E94572189836A817B81CE010E946721B8
:104300008B879E012D5C3F4F6A817B8147E1CE0107
:104310000E94D020DF91CF910895CF93DF93EC01DD
:104320006A817B810E94D520882329F0CE010E94DA
:104330006D2181E001C080E0DF91CF910895DF928F
:10434000EF92FF920F931F93CF93DF93EC017B01CA
:10435000D42E122F0E94A620FB82EA82DDA21CA38B
:104360000BA3CE010E948D21DF91CF911F910F9160
:10437000FF90EF90DF900895FC01628173810E94AD
:10438000F5200895CF93DF93EC01EE85FF853097FC
:1043900009F009956A817B81CE010E941B21DF9182
:1043A000CF9108950F93FC0182819381648F458F93
:1043B000278F068F9F01245E3F4F4BE3BC01CF0147
:1043C0000E94D0200F910895DC011696ED91FC918A
:1043D000179715968C919F01280F311DC9011192D5
:1043E000E817F907E1F70895FC0191E0838186174A
:1043F00008F490E021E0461708F020E0322F392B36
:1044000081E05281451708F480E083239223892BB1
:104410000895DC01FB01108212968C911297818322
:1044200015968C9115978150828313968C91838376
:104430000895FB0161812381213019F0233021F09F
:1044400006C048E0460F04C0462F685001C0462F02
:104450000E94F4210895FC01CB01BA012681378125
:1044600045810E9402250895DC011696ED91FC918C
:10447000179712968C91481B477081E090E0DC0101
:1044800002C0AA0FBB1F4A95E2F7AD01E60FF11D6E
:10449000222321F08081482B40830895409580811C
:1044A000482340830895FB014181FC01228142178A
:1044B00070F02381241758F0FB013081FC01258125
:1044C000321728F4FB012481632F0E9434220895BF
:1044D000DF92EF92FF920F931F93CF93DF938C01A4
:1044E000EB01FA808B81813041F098F0823049F005
:1044F000833059F0D12CE12C0FC0DD24D394E12C72
:104500000BC0D12CEE24EA9407C0DD24DA94E12C10
:1045100003C0D12CEE24E394FF2024F4BE01C80193
:104520000E94532288818E0D888389818D0D898315
:10453000FF0C91F7DF91CF911F910F91FF90EF90BA
:10454000DF9008950F931F93CF93DF93E901FB0151
:104550000281138150E0FA017497E433F105C0F54C
:10456000EB58FF4F0C942C26B901C8010E94192268
:10457000882381F1BE01C8010E94682281E02DC01C
:10458000B901C8010E94532281E027C0C8010E94DE
:10459000E421C8010E94FB2581E01FC0C8010E94E0
:1045A00002268823C9F0C8010E94E42181E015C0D9
:1045B000B901C8010E94092281E00FC0F80185817C
:1045C000888381E00AC0F8018181888381E005C089
:1045D00081E003C081E001C080E0DF91CF911F91B5
:1045E0000F910895AF92BF92CF92DF92EF920F9307
:1045F0001F93CF935C01C62EE42ED22E27E02D15FB
:10460000B8F4CD2D162F0FEF20E04E2D612FC501F0
:104610000E94D221C850185FC830A8F78D2D87702E
:1046200028E02C0D98EF9D0D987FC22EC90E01C079
:104630008D2D882399F007E008270F5F07708FEF13
:1046400090E09C0102C0220F331F0A95E2F7890116
:1046500020E04E2D6C2DC5010E94D221CF911F91DB
:104660000F91EF90DF90CF90BF90AF900895AF92F1
:10467000BF92CF92DF92EF920F931F93CF935C0183
:10468000E62EC42ED22E27E02D15B8F4CD2D142FF2
:104690000FEF21E0412F6E2DC5010E94D221C8509D
:1046A000185FC830A8F78D2D877028E02C0D98EF83
:1046B0009D0D987FC22EC90E01C08D2D882399F0C3
:1046C00007E008270F5F07708FEF90E09C0102C0A2
:1046D000220F331F0A95E2F7890121E04C2D6E2D40
:1046E000C5010E94D221CF911F910F91EF90DF90D1
:1046F000CF90BF90AF900895DF92EF92FF920F930B
:104700001F93CF93DF93EC01162FF42EE22ED02EC1
:104710000E9492248823E1F02E2D4F2D612FCE018F
:104720000E94F2222D2D4F2D612FCE010E943723A2
:104730006FEF6E0D610F2D2D4F2DCE010E9437238F
:10474000DA944D2D4F0D2E2D612FCE010E94F222B5
:10475000DF91CF911F910F91FF90EF90DF9008951F
:10476000EF92FF920F931F93CF93DF93EC01E62E0E
:10477000142FF22E2F2D412F6E2DCE010E94F222EA
:104780001F5F0150B9F7DF91CF911F910F91FF90FB
:10479000EF900895DF92EF92FF920F931F93CF93C4
:1047A000DF93EC01162FF42EE22E0E949224882330
:1047B00031F02E2D4F2D612FCE010E94B023DF91BD
:1047C000CF911F910F91FF90EF90DF90089580E0BF
:1047D0000895BF92CF92DF92EF92FF920F931F93B3
:1047E000CF93DF937C01B42EE901FB01C280D3801B
:1047F000042F10E0F8017797E133F10520F4E75535
:10480000FF4F0C942C269E014B2DB601C7010E9430
:10481000D02064C09E0147E1B6010E94D020B601BD
:10482000C7010E944721BA80B094B80EB601C701F3
:104830000E94472118811095180FB601C7010E94E8
:1048400057210B810095080FB601C7010E9457211F
:1048500099819095890FB88209831A838B8381E0AF
:104860003DC0B6010E944721888381E037C0B60170
:104870000E945721888381E031C0B6010E945721F0
:1048800019811095180FB601C7010E944721988120
:104890009095890F888319839E014B2DB601C7011E
:1048A0000E94D02081E01AC0B6010E9457211981D0
:1048B0001095180FB601C7010E9447219881909565
:1048C000890F888319838B818E5F83708B839E0110
:1048D0004B2DB601C7010E94D02081E0DF91CF911E
:1048E0001F910F91FF90EF90DF90CF90BF900895B0
:1048F000FC0122813381F1E026313F0749F03093FA
:1049000019012093180126E131E0FC013383228351
:1049100029EE33E230931701209316010E946D2196
:10492000089508950F93FC010150040F84A996A9DE
:10493000941738F0081768F481E0041740F080E01D
:1049400006C00817D0F081E0041708F080E0882343
:10495000C9F02150260F83A995A9961738F028177A
:1049600070F481E0261770F080E00CC0281748F042
:1049700081E0261738F080E005C080E003C081E0C8
:1049800001C080E00F910895DB011496ED91FC9138
:10499000159720E030E061E009950895DB01149659
:1049A000ED91FC91159720E030E063E009950895C2
:1049B000DB011496ED91FC91159720E030E040E08A
:1049C00064E009950895DB011496ED91FC9115972B
:1049D00020E030E041E064E009950895DB011496A1
:1049E000ED91FC91159720E030E062E00995089583
:1049F000DB011496ED91FC91159720E030E065E025
:104A000009950895DB011496ED91FC91159766E0E8
:104A1000099508958F929F92AF92BF92CF92DF92A5
:104A2000EF92FF921F93CF93DF937C014B01EA013A
:104A3000D12CB12CAA24A394FE011491D1100BC047
:104A40001F3F09F44FC0412FB401C7010E94F82451
:104A500081114DC04EC01F3F51F44FEFB401C7014B
:104A60000E94F824882309F446C0DB2C40C01E3F76
:104A700009F443C0103FC0F5103E40F0412F4F7085
:104A8000B401C7010E94EE24DB2C31C0103D40F080
:104A9000412F4F70B401C7010E94CE24DB2C27C0E8
:104AA000103CC0F0B401C7010E94D824C12ECC0C28
:104AB000CC0CCC0CCC0CC394C394D12CC6010E945A
:104AC000141EB401C7010E94E324C6010E94141EF3
:104AD000DB2C0DC0112354F0812F90E00E94141E96
:104AE000DB2C05C0DA2C03C0DB2C01C0DB2C2196AB
:104AF000A3CF80E003C080E001C081E0DF91CF91CF
:104B00001F91FF90EF90DF90CF90BF90AF909F905C
:104B10008F9008958EBD0DB407FEFDCF8EB508951C
:104B2000DF92EF92FF920F931F93CF93DF937C015D
:104B3000D42EE901062F10E0F8013197E730F10596
:104B400008F050C0E652FF4F0C942C2641113DC096
:104B500049C0411140C046C062E00E94011E61E0B0
:104B6000C7010E94011E60E0C7010E94011E8FB7AD
:104B700080933402F894239A259A229A2B982D98A0
:104B8000809134028FBF41E062E0C7010E940A1E9B
:104B90001CBC80E58CBD26C061E00E940A1E22C0BC
:104BA000411105C041E062E00E940A1E1BC02D9821
:104BB00040E062E00E940A1E15C060E00E940A1EEA
:104BC00011C0842F0E948A250DC089910E948A25D8
:104BD000DA94D9F707C0FE0184910E948A252196B4
:104BE000DA94C9F781E0DF91CF911F910F91FF9087
:104BF000EF90DF900895FC011282808181508383C1
:104C000014820895FC0120818281820F8283918128
:104C1000891760F484818F5F84838381280F29172B
:104C200010F02FEF290F238381E0089580E008958D
:104C300097FB072E16F4009407D077FD09D00E9449
:104C4000322607FC05D03EF4909581959F4F08953C
:104C5000709561957F4F0895EE0FFF1F0590F491B9
:104C6000E02D0994AA1BBB1B51E107C0AA1FBB1F63
:104C7000A617B70710F0A61BB70B881F991F5A95E8
:104C8000A9F780959095BC01CD010895FB01DC0149
:104C900002C005900D9241505040D8F70895F89405
:024CA000FFCF44
:104CA20026012A01310136011F1E0E0190250840FE
:104CB20000000080B401E72300000000555620697F
:104CC2006E6465783A004C4F57004D454449554D46
:0E4CD20000484947480045585452454D45009A
:00000001FF
